{"abi":[{"type":"function","name":"allowance","inputs":[{"name":"owner","type":"address","internalType":"address"},{"name":"spender","type":"address","internalType":"address"}],"outputs":[{"name":"","type":"uint256","internalType":"uint256"}],"stateMutability":"view"},{"type":"function","name":"approve","inputs":[{"name":"spender","type":"address","internalType":"address"},{"name":"value","type":"uint256","internalType":"uint256"}],"outputs":[{"name":"","type":"bool","internalType":"bool"}],"stateMutability":"nonpayable"},{"type":"function","name":"balanceOf","inputs":[{"name":"account","type":"address","internalType":"address"}],"outputs":[{"name":"","type":"uint256","internalType":"uint256"}],"stateMutability":"view"},{"type":"function","name":"blacklist","inputs":[{"name":"_account","type":"address","internalType":"address"}],"outputs":[],"stateMutability":"nonpayable"},{"type":"function","name":"blacklister","inputs":[],"outputs":[{"name":"","type":"address","internalType":"address"}],"stateMutability":"view"},{"type":"function","name":"burn","inputs":[{"name":"_amount","type":"uint256","internalType":"uint256"}],"outputs":[],"stateMutability":"nonpayable"},{"type":"function","name":"configureMinter","inputs":[{"name":"minter","type":"address","internalType":"address"},{"name":"minterAllowedAmount","type":"uint256","internalType":"uint256"}],"outputs":[{"name":"","type":"bool","internalType":"bool"}],"stateMutability":"nonpayable"},{"type":"function","name":"currency","inputs":[],"outputs":[{"name":"","type":"string","internalType":"string"}],"stateMutability":"view"},{"type":"function","name":"decimals","inputs":[],"outputs":[{"name":"","type":"uint8","internalType":"uint8"}],"stateMutability":"view"},{"type":"function","name":"initialize","inputs":[{"name":"tokenName","type":"string","internalType":"string"},{"name":"tokenSymbol","type":"string","internalType":"string"},{"name":"tokenCurrency","type":"string","internalType":"string"},{"name":"tokenDecimals","type":"uint8","internalType":"uint8"},{"name":"newMasterMinter","type":"address","internalType":"address"},{"name":"newPauser","type":"address","internalType":"address"},{"name":"newBlacklister","type":"address","internalType":"address"},{"name":"newOwner","type":"address","internalType":"address"}],"outputs":[],"stateMutability":"nonpayable"},{"type":"function","name":"isBlacklisted","inputs":[{"name":"_account","type":"address","internalType":"address"}],"outputs":[{"name":"","type":"bool","internalType":"bool"}],"stateMutability":"view"},{"type":"function","name":"isMinter","inputs":[{"name":"account","type":"address","internalType":"address"}],"outputs":[{"name":"","type":"bool","internalType":"bool"}],"stateMutability":"view"},{"type":"function","name":"masterMinter","inputs":[],"outputs":[{"name":"","type":"address","internalType":"address"}],"stateMutability":"view"},{"type":"function","name":"mint","inputs":[{"name":"_to","type":"address","internalType":"address"},{"name":"_amount","type":"uint256","internalType":"uint256"}],"outputs":[{"name":"","type":"bool","internalType":"bool"}],"stateMutability":"nonpayable"},{"type":"function","name":"minterAllowance","inputs":[{"name":"minter","type":"address","internalType":"address"}],"outputs":[{"name":"","type":"uint256","internalType":"uint256"}],"stateMutability":"view"},{"type":"function","name":"name","inputs":[],"outputs":[{"name":"","type":"string","internalType":"string"}],"stateMutability":"view"},{"type":"function","name":"owner","inputs":[],"outputs":[{"name":"","type":"address","internalType":"address"}],"stateMutability":"view"},{"type":"function","name":"pause","inputs":[],"outputs":[],"stateMutability":"nonpayable"},{"type":"function","name":"paused","inputs":[],"outputs":[{"name":"","type":"bool","internalType":"bool"}],"stateMutability":"view"},{"type":"function","name":"pauser","inputs":[],"outputs":[{"name":"","type":"address","internalType":"address"}],"stateMutability":"view"},{"type":"function","name":"removeMinter","inputs":[{"name":"minter","type":"address","internalType":"address"}],"outputs":[{"name":"","type":"bool","internalType":"bool"}],"stateMutability":"nonpayable"},{"type":"function","name":"rescueERC20","inputs":[{"name":"tokenContract","type":"address","internalType":"contract IERC20"},{"name":"to","type":"address","internalType":"address"},{"name":"amount","type":"uint256","internalType":"uint256"}],"outputs":[],"stateMutability":"nonpayable"},{"type":"function","name":"rescuer","inputs":[],"outputs":[{"name":"","type":"address","internalType":"address"}],"stateMutability":"view"},{"type":"function","name":"symbol","inputs":[],"outputs":[{"name":"","type":"string","internalType":"string"}],"stateMutability":"view"},{"type":"function","name":"totalSupply","inputs":[],"outputs":[{"name":"","type":"uint256","internalType":"uint256"}],"stateMutability":"view"},{"type":"function","name":"transfer","inputs":[{"name":"to","type":"address","internalType":"address"},{"name":"value","type":"uint256","internalType":"uint256"}],"outputs":[{"name":"","type":"bool","internalType":"bool"}],"stateMutability":"nonpayable"},{"type":"function","name":"transferFrom","inputs":[{"name":"from","type":"address","internalType":"address"},{"name":"to","type":"address","internalType":"address"},{"name":"value","type":"uint256","internalType":"uint256"}],"outputs":[{"name":"","type":"bool","internalType":"bool"}],"stateMutability":"nonpayable"},{"type":"function","name":"transferOwnership","inputs":[{"name":"newOwner","type":"address","internalType":"address"}],"outputs":[],"stateMutability":"nonpayable"},{"type":"function","name":"unBlacklist","inputs":[{"name":"_account","type":"address","internalType":"address"}],"outputs":[],"stateMutability":"nonpayable"},{"type":"function","name":"unpause","inputs":[],"outputs":[],"stateMutability":"nonpayable"},{"type":"function","name":"updateBlacklister","inputs":[{"name":"_newBlacklister","type":"address","internalType":"address"}],"outputs":[],"stateMutability":"nonpayable"},{"type":"function","name":"updateMasterMinter","inputs":[{"name":"_newMasterMinter","type":"address","internalType":"address"}],"outputs":[],"stateMutability":"nonpayable"},{"type":"function","name":"updatePauser","inputs":[{"name":"_newPauser","type":"address","internalType":"address"}],"outputs":[],"stateMutability":"nonpayable"},{"type":"function","name":"updateRescuer","inputs":[{"name":"newRescuer","type":"address","internalType":"address"}],"outputs":[],"stateMutability":"nonpayable"},{"type":"event","name":"Approval","inputs":[{"name":"owner","type":"address","indexed":true,"internalType":"address"},{"name":"spender","type":"address","indexed":true,"internalType":"address"},{"name":"value","type":"uint256","indexed":false,"internalType":"uint256"}],"anonymous":false},{"type":"event","name":"Blacklisted","inputs":[{"name":"_account","type":"address","indexed":true,"internalType":"address"}],"anonymous":false},{"type":"event","name":"BlacklisterChanged","inputs":[{"name":"newBlacklister","type":"address","indexed":true,"internalType":"address"}],"anonymous":false},{"type":"event","name":"Burn","inputs":[{"name":"burner","type":"address","indexed":true,"internalType":"address"},{"name":"amount","type":"uint256","indexed":false,"internalType":"uint256"}],"anonymous":false},{"type":"event","name":"MasterMinterChanged","inputs":[{"name":"newMasterMinter","type":"address","indexed":true,"internalType":"address"}],"anonymous":false},{"type":"event","name":"Mint","inputs":[{"name":"minter","type":"address","indexed":true,"internalType":"address"},{"name":"to","type":"address","indexed":true,"internalType":"address"},{"name":"amount","type":"uint256","indexed":false,"internalType":"uint256"}],"anonymous":false},{"type":"event","name":"MinterConfigured","inputs":[{"name":"minter","type":"address","indexed":true,"internalType":"address"},{"name":"minterAllowedAmount","type":"uint256","indexed":false,"internalType":"uint256"}],"anonymous":false},{"type":"event","name":"MinterRemoved","inputs":[{"name":"oldMinter","type":"address","indexed":true,"internalType":"address"}],"anonymous":false},{"type":"event","name":"OwnershipTransferred","inputs":[{"name":"previousOwner","type":"address","indexed":false,"internalType":"address"},{"name":"newOwner","type":"address","indexed":false,"internalType":"address"}],"anonymous":false},{"type":"event","name":"Pause","inputs":[],"anonymous":false},{"type":"event","name":"PauserChanged","inputs":[{"name":"newAddress","type":"address","indexed":true,"internalType":"address"}],"anonymous":false},{"type":"event","name":"RescuerChanged","inputs":[{"name":"newRescuer","type":"address","indexed":true,"internalType":"address"}],"anonymous":false},{"type":"event","name":"Transfer","inputs":[{"name":"from","type":"address","indexed":true,"internalType":"address"},{"name":"to","type":"address","indexed":true,"internalType":"address"},{"name":"value","type":"uint256","indexed":false,"internalType":"uint256"}],"anonymous":false},{"type":"event","name":"UnBlacklisted","inputs":[{"name":"_account","type":"address","indexed":true,"internalType":"address"}],"anonymous":false},{"type":"event","name":"Unpause","inputs":[],"anonymous":false}],"bytecode":{"object":"0x60806040526001805460ff60a01b191690556000600b5534801561002257600080fd5b5061002c33610031565b610053565b600080546001600160a01b0319166001600160a01b0392909216919091179055565b612986806100626000396000f3fe608060405234801561001057600080fd5b50600436106102065760003560e01c806370a082311161011a578063aa271e1a116100ad578063dd62ed3e1161007c578063dd62ed3e146107a8578063e5a6b10f146107d6578063f2fde38b146107de578063f9f92be414610804578063fe575a871461082a57610206565b8063aa271e1a1461071e578063ad38bf2214610744578063b2118a8d1461076a578063bd102430146107a057610206565b806395d89b41116100e957806395d89b41146106bc5780639fd0506d146106c4578063a9059cbb146106cc578063aa20e1e4146106f857610206565b806370a08231146106605780638456cb59146106865780638a6db9c31461068e5780638da5cb5b146106b457610206565b80633357162b1161019d57806340c10f191161016c57806340c10f19146105bd57806342966c68146105e95780634e44d95614610606578063554bab3c146106325780635c975abb1461065857610206565b80633357162b146103aa57806335d99f351461058957806338a63183146105ad5780633f4ba83a146105b557610206565b806323b872dd116101d957806323b872dd1461030a5780632ab60045146103405780633092afd514610366578063313ce5671461038c57610206565b806306fdde031461020b578063095ea7b31461028857806318160ddd146102c85780631a895266146102e2575b600080fd5b610213610850565b6040805160208082528351818301528351919283929083019185019080838360005b8381101561024d578181015183820152602001610235565b50505050905090810190601f16801561027a5780820380516001836020036101000a031916815260200191505b509250505060405180910390f35b6102b46004803603604081101561029e57600080fd5b506001600160a01b0381351690602001356108de565b604080519115158252519081900360200190f35b6102d06109f2565b60408051918252519081900360200190f35b610308600480360360208110156102f857600080fd5b50356001600160a01b03166109f8565b005b6102b46004803603606081101561032057600080fd5b506001600160a01b03813581169160208101359091169060400135610a8a565b6103086004803603602081101561035657600080fd5b50356001600160a01b0316610caf565b6102b46004803603602081101561037c57600080fd5b50356001600160a01b0316610d8b565b610394610e32565b6040805160ff9092168252519081900360200190f35b61030860048036036101008110156103c157600080fd5b8101906020810181356401000000008111156103dc57600080fd5b8201836020820111156103ee57600080fd5b8035906020019184600183028401116401000000008311171561041057600080fd5b91908080601f016020809104026020016040519081016040528093929190818152602001838380828437600092019190915250929594936020810193503591505064010000000081111561046357600080fd5b82018360208201111561047557600080fd5b8035906020019184600183028401116401000000008311171561049757600080fd5b91908080601f01602080910402602001604051908101604052809392919081815260200183838082843760009201919091525092959493602081019350359150506401000000008111156104ea57600080fd5b8201836020820111156104fc57600080fd5b8035906020019184600183028401116401000000008311171561051e57600080fd5b91908080601f0160208091040260200160405190810160405280939291908181526020018383808284376000920191909152509295505050813560ff1692505060208101356001600160a01b0390811691604081013582169160608201358116916080013516610e3b565b610591611047565b604080516001600160a01b039092168252519081900360200190f35b610591611056565b610308611065565b6102b4600480360360408110156105d357600080fd5b506001600160a01b0381351690602001356110e6565b610308600480360360208110156105ff57600080fd5b503561133c565b6102b46004803603604081101561061c57600080fd5b506001600160a01b038135169060200135611556565b6103086004803603602081101561064857600080fd5b50356001600160a01b031661165f565b6102b4611741565b6102d06004803603602081101561067657600080fd5b50356001600160a01b0316611751565b61030861176c565b6102d0600480360360208110156106a457600080fd5b50356001600160a01b03166117f3565b61059161180e565b61021361181d565b610591611878565b6102b4600480360360408110156106e257600080fd5b506001600160a01b038135169060200135611887565b6103086004803603602081101561070e57600080fd5b50356001600160a01b0316611990565b6102b46004803603602081101561073457600080fd5b50356001600160a01b0316611a72565b6103086004803603602081101561075a57600080fd5b50356001600160a01b0316611a90565b6103086004803603606081101561078057600080fd5b506001600160a01b03813581169160208101359091169060400135611b72565b610591611bd4565b6102d0600480360360408110156107be57600080fd5b506001600160a01b0381358116916020013516611be3565b610213611c0e565b610308600480360360208110156107f457600080fd5b50356001600160a01b0316611c69565b6103086004803603602081101561081a57600080fd5b50356001600160a01b0316611d4f565b6102b46004803603602081101561084057600080fd5b50356001600160a01b0316611de4565b6004805460408051602060026001851615610100026000190190941693909304601f810184900484028201840190925281815292918301828280156108d65780601f106108ab576101008083540402835291602001916108d6565b820191906000526020600020905b8154815290600101906020018083116108b957829003601f168201915b505050505081565b600154600090600160a01b900460ff1615610933576040805162461bcd60e51b815260206004820152601060248201526f14185d5cd8589b194e881c185d5cd95960821b604482015290519081900360640190fd5b3360008181526003602052604090205460ff16156109825760405162461bcd60e51b815260040180806020018281038252602581526020018061292c6025913960400191505060405180910390fd5b6001600160a01b038416600090815260036020526040902054849060ff16156109dc5760405162461bcd60e51b815260040180806020018281038252602581526020018061292c6025913960400191505060405180910390fd5b6109e7338686611e02565b506001949350505050565b600b5490565b6002546001600160a01b03163314610a415760405162461bcd60e51b815260040180806020018281038252602c8152602001806126d7602c913960400191505060405180910390fd5b6001600160a01b038116600081815260036020526040808220805460ff19169055517f117e3210bb9aa7d9baff172026820255c6f6c30ba8999d1c2fd88e2848137c4e9190a250565b600154600090600160a01b900460ff1615610adf576040805162461bcd60e51b815260206004820152601060248201526f14185d5cd8589b194e881c185d5cd95960821b604482015290519081900360640190fd5b3360008181526003602052604090205460ff1615610b2e5760405162461bcd60e51b815260040180806020018281038252602581526020018061292c6025913960400191505060405180910390fd5b6001600160a01b038516600090815260036020526040902054859060ff1615610b885760405162461bcd60e51b815260040180806020018281038252602581526020018061292c6025913960400191505060405180910390fd5b6001600160a01b038516600090815260036020526040902054859060ff1615610be25760405162461bcd60e51b815260040180806020018281038252602581526020018061292c6025913960400191505060405180910390fd5b6001600160a01b0387166000908152600a60209081526040808320338452909152902054851115610c445760405162461bcd60e51b815260040180806020018281038252602881526020018061279d6028913960400191505060405180910390fd5b610c4f878787611eee565b6001600160a01b0387166000908152600a60209081526040808320338452909152902054610c7d908661207d565b6001600160a01b0388166000908152600a60209081526040808320338452909152902055600193505050509392505050565b6000546001600160a01b03163314610cfc576040805162461bcd60e51b815260206004820181905260248201526000805160206127c5833981519152604482015290519081900360640190fd5b6001600160a01b038116610d415760405162461bcd60e51b815260040180806020018281038252602a815260200180612635602a913960400191505060405180910390fd5b600e80546001600160a01b0319166001600160a01b0383169081179091556040517fe475e580d85111348e40d8ca33cfdd74c30fe1655c2d8537a13abc10065ffa5a90600090a250565b6008546000906001600160a01b03163314610dd75760405162461bcd60e51b81526004018080602001828103825260298152602001806126ae6029913960400191505060405180910390fd5b6001600160a01b0382166000818152600c60209081526040808320805460ff19169055600d909152808220829055517fe94479a9f7e1952cc78f2d6baab678adc1b772d936c6583def489e524cb666929190a2506001919050565b60065460ff1681565b600854600160a01b900460ff1615610e845760405162461bcd60e51b815260040180806020018281038252602a815260200180612813602a913960400191505060405180910390fd5b6001600160a01b038416610ec95760405162461bcd60e51b815260040180806020018281038252602f81526020018061274a602f913960400191505060405180910390fd5b6001600160a01b038316610f0e5760405162461bcd60e51b815260040180806020018281038252602981526020018061260c6029913960400191505060405180910390fd5b6001600160a01b038216610f535760405162461bcd60e51b815260040180806020018281038252602e8152602001806127e5602e913960400191505060405180910390fd5b6001600160a01b038116610f985760405162461bcd60e51b81526004018080602001828103825260288152602001806128d26028913960400191505060405180910390fd5b8751610fab9060049060208b0190612499565b508651610fbf9060059060208a0190612499565b508551610fd3906007906020890190612499565b506006805460ff191660ff8716179055600880546001600160a01b03199081166001600160a01b03878116919091179092556001805482168684161790556002805490911691841691909117905561102a816120c6565b50506008805460ff60a01b1916600160a01b179055505050505050565b6008546001600160a01b031681565b600e546001600160a01b031690565b6001546001600160a01b031633146110ae5760405162461bcd60e51b81526004018080602001828103825260228152602001806128866022913960400191505060405180910390fd5b6001805460ff60a01b191690556040517f7805862f689e2f13df9f062ff482ad3ad112aca9e0847911ed832e158c525b3390600090a1565b600154600090600160a01b900460ff161561113b576040805162461bcd60e51b815260206004820152601060248201526f14185d5cd8589b194e881c185d5cd95960821b604482015290519081900360640190fd5b3360008181526003602052604090205460ff161561118a5760405162461bcd60e51b815260040180806020018281038252602581526020018061292c6025913960400191505060405180910390fd5b6001600160a01b038416600090815260036020526040902054849060ff16156111e45760405162461bcd60e51b815260040180806020018281038252602581526020018061292c6025913960400191505060405180910390fd5b6001600160a01b0385166112295760405162461bcd60e51b81526004018080602001828103825260238152602001806125a16023913960400191505060405180910390fd5b600084116112685760405162461bcd60e51b815260040180806020018281038252602981526020018061265f6029913960400191505060405180910390fd5b600b5461127590856120e8565b600b556001600160a01b03851660009081526009602052604090205461129b90856120e8565b6001600160a01b0386166000818152600960209081526040918290209390935580518781529051919233927fab8530f87dc9b59234c4623bf917212bb2536d647574c8e7e5da92c2ede0c9f89281900390910190a36040805185815290516001600160a01b038716916000917fddf252ad1be2c89b69c2b068fc378daa952ba7f163c4a11628f55a4df523b3ef9181900360200190a3506001949350505050565b600154600160a01b900460ff161561138e576040805162461bcd60e51b815260206004820152601060248201526f14185d5cd8589b194e881c185d5cd95960821b604482015290519081900360640190fd5b336000908152600c602052604090205460ff166113dc5760405162461bcd60e51b81526004018080602001828103825260218152602001806127296021913960400191505060405180910390fd5b3360008181526003602052604090205460ff161561142b5760405162461bcd60e51b815260040180806020018281038252602581526020018061292c6025913960400191505060405180910390fd5b33600090815260096020526040902054826114775760405162461bcd60e51b81526004018080602001828103825260298152602001806125786029913960400191505060405180910390fd5b828110156114b65760405162461bcd60e51b81526004018080602001828103825260268152602001806127036026913960400191505060405180910390fd5b600b546114c3908461207d565b600b556114d0818461207d565b33600081815260096020908152604091829020939093558051868152905191927fcc16f5dbb4873280815c1ee09dbd06736cffcc184412cf7a71a0fdb75d397ca592918290030190a260408051848152905160009133917fddf252ad1be2c89b69c2b068fc378daa952ba7f163c4a11628f55a4df523b3ef9181900360200190a3505050565b600154600090600160a01b900460ff16156115ab576040805162461bcd60e51b815260206004820152601060248201526f14185d5cd8589b194e881c185d5cd95960821b604482015290519081900360640190fd5b6008546001600160a01b031633146115f45760405162461bcd60e51b81526004018080602001828103825260298152602001806126ae6029913960400191505060405180910390fd5b6001600160a01b0383166000818152600c60209081526040808320805460ff19166001179055600d825291829020859055815185815291517f46980fca912ef9bcdbd36877427b6b90e860769f604e89c0e67720cece530d209281900390910190a250600192915050565b6000546001600160a01b031633146116ac576040805162461bcd60e51b815260206004820181905260248201526000805160206127c5833981519152604482015290519081900360640190fd5b6001600160a01b0381166116f15760405162461bcd60e51b81526004018080602001828103825260288152602001806125506028913960400191505060405180910390fd5b600180546001600160a01b0319166001600160a01b0383811691909117918290556040519116907fb80482a293ca2e013eda8683c9bd7fc8347cfdaeea5ede58cba46df502c2a60490600090a250565b600154600160a01b900460ff1681565b6001600160a01b031660009081526009602052604090205490565b6001546001600160a01b031633146117b55760405162461bcd60e51b81526004018080602001828103825260228152602001806128866022913960400191505060405180910390fd5b6001805460ff60a01b1916600160a01b1790556040517f6985a02210a168e66602d3235cb6db0e70f92b3ba4d376a33c0f3d9434bff62590600090a1565b6001600160a01b03166000908152600d602052604090205490565b6000546001600160a01b031690565b6005805460408051602060026001851615610100026000190190941693909304601f810184900484028201840190925281815292918301828280156108d65780601f106108ab576101008083540402835291602001916108d6565b6001546001600160a01b031681565b600154600090600160a01b900460ff16156118dc576040805162461bcd60e51b815260206004820152601060248201526f14185d5cd8589b194e881c185d5cd95960821b604482015290519081900360640190fd5b3360008181526003602052604090205460ff161561192b5760405162461bcd60e51b815260040180806020018281038252602581526020018061292c6025913960400191505060405180910390fd5b6001600160a01b038416600090815260036020526040902054849060ff16156119855760405162461bcd60e51b815260040180806020018281038252602581526020018061292c6025913960400191505060405180910390fd5b6109e7338686611eee565b6000546001600160a01b031633146119dd576040805162461bcd60e51b815260206004820181905260248201526000805160206127c5833981519152604482015290519081900360640190fd5b6001600160a01b038116611a225760405162461bcd60e51b815260040180806020018281038252602f81526020018061274a602f913960400191505060405180910390fd5b600880546001600160a01b0319166001600160a01b0383811691909117918290556040519116907fdb66dfa9c6b8f5226fe9aac7e51897ae8ee94ac31dc70bb6c9900b2574b707e690600090a250565b6001600160a01b03166000908152600c602052604090205460ff1690565b6000546001600160a01b03163314611add576040805162461bcd60e51b815260206004820181905260248201526000805160206127c5833981519152604482015290519081900360640190fd5b6001600160a01b038116611b225760405162461bcd60e51b81526004018080602001828103825260328152602001806128fa6032913960400191505060405180910390fd5b600280546001600160a01b0319166001600160a01b0383811691909117918290556040519116907fc67398012c111ce95ecb7429b933096c977380ee6c421175a71a4a4c6c88c06e90600090a250565b600e546001600160a01b03163314611bbb5760405162461bcd60e51b81526004018080602001828103825260248152602001806127796024913960400191505060405180910390fd5b611bcf6001600160a01b0384168383612142565b505050565b6002546001600160a01b031681565b6001600160a01b039182166000908152600a6020908152604080832093909416825291909152205490565b6007805460408051602060026001851615610100026000190190941693909304601f810184900484028201840190925281815292918301828280156108d65780601f106108ab576101008083540402835291602001916108d6565b6000546001600160a01b03163314611cb6576040805162461bcd60e51b815260206004820181905260248201526000805160206127c5833981519152604482015290519081900360640190fd5b6001600160a01b038116611cfb5760405162461bcd60e51b81526004018080602001828103825260268152602001806125c46026913960400191505060405180910390fd5b600054604080516001600160a01b039283168152918316602083015280517f8be0079c531659141344cd1fd0a4f28419497f9722a3daafe3b4186f6b6457e09281900390910190a1611d4c816120c6565b50565b6002546001600160a01b03163314611d985760405162461bcd60e51b815260040180806020018281038252602c8152602001806126d7602c913960400191505060405180910390fd5b6001600160a01b038116600081815260036020526040808220805460ff19166001179055517fffa4e6181777692565cf28528fc88fd1516ea86b56da075235fa575af6a4b8559190a250565b6001600160a01b031660009081526003602052604090205460ff1690565b6001600160a01b038316611e475760405162461bcd60e51b81526004018080602001828103825260248152602001806128626024913960400191505060405180910390fd5b6001600160a01b038216611e8c5760405162461bcd60e51b81526004018080602001828103825260228152602001806125ea6022913960400191505060405180910390fd5b6001600160a01b038084166000818152600a6020908152604080832094871680845294825291829020859055815185815291517f8c5be1e5ebec7d5bd14f71427d1e84f3dd0314c0f7b2291e5b200ac8c7c3b9259281900390910190a3505050565b6001600160a01b038316611f335760405162461bcd60e51b815260040180806020018281038252602581526020018061283d6025913960400191505060405180910390fd5b6001600160a01b038216611f785760405162461bcd60e51b815260040180806020018281038252602381526020018061252d6023913960400191505060405180910390fd5b6001600160a01b038316600090815260096020526040902054811115611fcf5760405162461bcd60e51b81526004018080602001828103825260268152602001806126886026913960400191505060405180910390fd5b6001600160a01b038316600090815260096020526040902054611ff2908261207d565b6001600160a01b03808516600090815260096020526040808220939093559084168152205461202190826120e8565b6001600160a01b0380841660008181526009602090815260409182902094909455805185815290519193928716927fddf252ad1be2c89b69c2b068fc378daa952ba7f163c4a11628f55a4df523b3ef92918290030190a3505050565b60006120bf83836040518060400160405280601e81526020017f536166654d6174683a207375627472616374696f6e206f766572666c6f770000815250612194565b9392505050565b600080546001600160a01b0319166001600160a01b0392909216919091179055565b6000828201838110156120bf576040805162461bcd60e51b815260206004820152601b60248201527f536166654d6174683a206164646974696f6e206f766572666c6f770000000000604482015290519081900360640190fd5b604080516001600160a01b038416602482015260448082018490528251808303909101815260649091019091526020810180516001600160e01b031663a9059cbb60e01b179052611bcf90849061222b565b600081848411156122235760405162461bcd60e51b81526004018080602001828103825283818151815260200191508051906020019080838360005b838110156121e85781810151838201526020016121d0565b50505050905090810190601f1680156122155780820380516001836020036101000a031916815260200191505b509250505060405180910390fd5b505050900390565b6060612280826040518060400160405280602081526020017f5361666545524332303a206c6f772d6c6576656c2063616c6c206661696c6564815250856001600160a01b03166122dc9092919063ffffffff16565b805190915015611bcf5780806020019051602081101561229f57600080fd5b5051611bcf5760405162461bcd60e51b815260040180806020018281038252602a8152602001806128a8602a913960400191505060405180910390fd5b60606122eb84846000856122f3565b949350505050565b60606122fe85612460565b61234f576040805162461bcd60e51b815260206004820152601d60248201527f416464726573733a2063616c6c20746f206e6f6e2d636f6e7472616374000000604482015290519081900360640190fd5b60006060866001600160a01b031685876040518082805190602001908083835b6020831061238e5780518252601f19909201916020918201910161236f565b6001836020036101000a03801982511681845116808217855250505050505090500191505060006040518083038185875af1925050503d80600081146123f0576040519150601f19603f3d011682016040523d82523d6000602084013e6123f5565b606091505b509150915081156124095791506122eb9050565b8051156124195780518082602001fd5b60405162461bcd60e51b81526020600482018181528651602484015286518793919283926044019190850190808383600083156121e85781810151838201526020016121d0565b6000813f7fc5d2460186f7233c927e7db2dcc703c0e500b653ca82273b7bfad8045d85a4708181148015906122eb575050151592915050565b828054600181600116156101000203166002900490600052602060002090601f016020900481019282601f106124da57805160ff1916838001178555612507565b82800160010185558215612507579182015b828111156125075782518255916020019190600101906124ec565b50612513929150612517565b5090565b5b80821115612513576000815560010161251856fe45524332303a207472616e7366657220746f20746865207a65726f20616464726573735061757361626c653a206e65772070617573657220697320746865207a65726f206164647265737346696174546f6b656e3a206275726e20616d6f756e74206e6f742067726561746572207468616e203046696174546f6b656e3a206d696e7420746f20746865207a65726f20616464726573734f776e61626c653a206e6577206f776e657220697320746865207a65726f206164647265737345524332303a20617070726f766520746f20746865207a65726f206164647265737346696174546f6b656e3a206e65772070617573657220697320746865207a65726f2061646472657373526573637561626c653a206e6577207265736375657220697320746865207a65726f206164647265737346696174546f6b656e3a206d696e7420616d6f756e74206e6f742067726561746572207468616e203045524332303a207472616e7366657220616d6f756e7420657863656564732062616c616e636546696174546f6b656e3a2063616c6c6572206973206e6f7420746865206d61737465724d696e746572426c61636b6c69737461626c653a2063616c6c6572206973206e6f742074686520626c61636b6c697374657246696174546f6b656e3a206275726e20616d6f756e7420657863656564732062616c616e636546696174546f6b656e3a2063616c6c6572206973206e6f742061206d696e74657246696174546f6b656e3a206e6577206d61737465724d696e74657220697320746865207a65726f2061646472657373526573637561626c653a2063616c6c6572206973206e6f7420746865207265736375657245524332303a207472616e7366657220616d6f756e74206578636565647320616c6c6f77616e63654f776e61626c653a2063616c6c6572206973206e6f7420746865206f776e657246696174546f6b656e3a206e657720626c61636b6c697374657220697320746865207a65726f206164647265737346696174546f6b656e3a20636f6e747261637420697320616c726561647920696e697469616c697a656445524332303a207472616e736665722066726f6d20746865207a65726f206164647265737345524332303a20617070726f76652066726f6d20746865207a65726f20616464726573735061757361626c653a2063616c6c6572206973206e6f7420746865207061757365725361666545524332303a204552433230206f7065726174696f6e20646964206e6f74207375636365656446696174546f6b656e3a206e6577206f776e657220697320746865207a65726f2061646472657373426c61636b6c69737461626c653a206e657720626c61636b6c697374657220697320746865207a65726f2061646472657373426c61636b6c69737461626c653a206163636f756e7420697320626c61636b6c6973746564a2646970667358221220356b0a5b11d8f3a5951bb0049919a8fa8d1f7391bc7832339f6dc9b4b9bc680c64736f6c634300060c0033","linkReferences":{}},"methodIdentifiers":{"allowance(address,address)":"dd62ed3e","approve(address,uint256)":"095ea7b3","balanceOf(address)":"70a08231","blacklist(address)":"f9f92be4","blacklister()":"bd102430","burn(uint256)":"42966c68","configureMinter(address,uint256)":"4e44d956","currency()":"e5a6b10f","decimals()":"313ce567","initialize(string,string,string,uint8,address,address,address,address)":"3357162b","isBlacklisted(address)":"fe575a87","isMinter(address)":"aa271e1a","masterMinter()":"35d99f35","mint(address,uint256)":"40c10f19","minterAllowance(address)":"8a6db9c3","name()":"06fdde03","owner()":"8da5cb5b","pause()":"8456cb59","paused()":"5c975abb","pauser()":"9fd0506d","removeMinter(address)":"3092afd5","rescueERC20(address,address,uint256)":"b2118a8d","rescuer()":"38a63183","symbol()":"95d89b41","totalSupply()":"18160ddd","transfer(address,uint256)":"a9059cbb","transferFrom(address,address,uint256)":"23b872dd","transferOwnership(address)":"f2fde38b","unBlacklist(address)":"1a895266","unpause()":"3f4ba83a","updateBlacklister(address)":"ad38bf22","updateMasterMinter(address)":"aa20e1e4","updatePauser(address)":"554bab3c","updateRescuer(address)":"2ab60045"},"id":0}