{"abi":[{"type":"function","name":"CANCEL_AUTHORIZATION_TYPEHASH","inputs":[],"outputs":[{"name":"","type":"bytes32","internalType":"bytes32"}],"stateMutability":"view"},{"type":"function","name":"DOMAIN_SEPARATOR","inputs":[],"outputs":[{"name":"","type":"bytes32","internalType":"bytes32"}],"stateMutability":"view"},{"type":"function","name":"PERMIT_TYPEHASH","inputs":[],"outputs":[{"name":"","type":"bytes32","internalType":"bytes32"}],"stateMutability":"view"},{"type":"function","name":"RECEIVE_WITH_AUTHORIZATION_TYPEHASH","inputs":[],"outputs":[{"name":"","type":"bytes32","internalType":"bytes32"}],"stateMutability":"view"},{"type":"function","name":"TRANSFER_WITH_AUTHORIZATION_TYPEHASH","inputs":[],"outputs":[{"name":"","type":"bytes32","internalType":"bytes32"}],"stateMutability":"view"},{"type":"function","name":"allowance","inputs":[{"name":"owner","type":"address","internalType":"address"},{"name":"spender","type":"address","internalType":"address"}],"outputs":[{"name":"","type":"uint256","internalType":"uint256"}],"stateMutability":"view"},{"type":"function","name":"approve","inputs":[{"name":"spender","type":"address","internalType":"address"},{"name":"value","type":"uint256","internalType":"uint256"}],"outputs":[{"name":"","type":"bool","internalType":"bool"}],"stateMutability":"nonpayable"},{"type":"function","name":"authorizationState","inputs":[{"name":"authorizer","type":"address","internalType":"address"},{"name":"nonce","type":"bytes32","internalType":"bytes32"}],"outputs":[{"name":"","type":"bool","internalType":"bool"}],"stateMutability":"view"},{"type":"function","name":"balanceOf","inputs":[{"name":"account","type":"address","internalType":"address"}],"outputs":[{"name":"","type":"uint256","internalType":"uint256"}],"stateMutability":"view"},{"type":"function","name":"blacklist","inputs":[{"name":"_account","type":"address","internalType":"address"}],"outputs":[],"stateMutability":"nonpayable"},{"type":"function","name":"blacklister","inputs":[],"outputs":[{"name":"","type":"address","internalType":"address"}],"stateMutability":"view"},{"type":"function","name":"burn","inputs":[{"name":"_amount","type":"uint256","internalType":"uint256"}],"outputs":[],"stateMutability":"nonpayable"},{"type":"function","name":"cancelAuthorization","inputs":[{"name":"authorizer","type":"address","internalType":"address"},{"name":"nonce","type":"bytes32","internalType":"bytes32"},{"name":"v","type":"uint8","internalType":"uint8"},{"name":"r","type":"bytes32","internalType":"bytes32"},{"name":"s","type":"bytes32","internalType":"bytes32"}],"outputs":[],"stateMutability":"nonpayable"},{"type":"function","name":"configureMinter","inputs":[{"name":"minter","type":"address","internalType":"address"},{"name":"minterAllowedAmount","type":"uint256","internalType":"uint256"}],"outputs":[{"name":"","type":"bool","internalType":"bool"}],"stateMutability":"nonpayable"},{"type":"function","name":"currency","inputs":[],"outputs":[{"name":"","type":"string","internalType":"string"}],"stateMutability":"view"},{"type":"function","name":"decimals","inputs":[],"outputs":[{"name":"","type":"uint8","internalType":"uint8"}],"stateMutability":"view"},{"type":"function","name":"decreaseAllowance","inputs":[{"name":"spender","type":"address","internalType":"address"},{"name":"decrement","type":"uint256","internalType":"uint256"}],"outputs":[{"name":"","type":"bool","internalType":"bool"}],"stateMutability":"nonpayable"},{"type":"function","name":"increaseAllowance","inputs":[{"name":"spender","type":"address","internalType":"address"},{"name":"increment","type":"uint256","internalType":"uint256"}],"outputs":[{"name":"","type":"bool","internalType":"bool"}],"stateMutability":"nonpayable"},{"type":"function","name":"initialize","inputs":[{"name":"tokenName","type":"string","internalType":"string"},{"name":"tokenSymbol","type":"string","internalType":"string"},{"name":"tokenCurrency","type":"string","internalType":"string"},{"name":"tokenDecimals","type":"uint8","internalType":"uint8"},{"name":"newMasterMinter","type":"address","internalType":"address"},{"name":"newPauser","type":"address","internalType":"address"},{"name":"newBlacklister","type":"address","internalType":"address"},{"name":"newOwner","type":"address","internalType":"address"}],"outputs":[],"stateMutability":"nonpayable"},{"type":"function","name":"initializeV2","inputs":[{"name":"newName","type":"string","internalType":"string"}],"outputs":[],"stateMutability":"nonpayable"},{"type":"function","name":"initializeV2_1","inputs":[{"name":"lostAndFound","type":"address","internalType":"address"}],"outputs":[],"stateMutability":"nonpayable"},{"type":"function","name":"isBlacklisted","inputs":[{"name":"_account","type":"address","internalType":"address"}],"outputs":[{"name":"","type":"bool","internalType":"bool"}],"stateMutability":"view"},{"type":"function","name":"isMinter","inputs":[{"name":"account","type":"address","internalType":"address"}],"outputs":[{"name":"","type":"bool","internalType":"bool"}],"stateMutability":"view"},{"type":"function","name":"masterMinter","inputs":[],"outputs":[{"name":"","type":"address","internalType":"address"}],"stateMutability":"view"},{"type":"function","name":"mint","inputs":[{"name":"_to","type":"address","internalType":"address"},{"name":"_amount","type":"uint256","internalType":"uint256"}],"outputs":[{"name":"","type":"bool","internalType":"bool"}],"stateMutability":"nonpayable"},{"type":"function","name":"minterAllowance","inputs":[{"name":"minter","type":"address","internalType":"address"}],"outputs":[{"name":"","type":"uint256","internalType":"uint256"}],"stateMutability":"view"},{"type":"function","name":"name","inputs":[],"outputs":[{"name":"","type":"string","internalType":"string"}],"stateMutability":"view"},{"type":"function","name":"nonces","inputs":[{"name":"owner","type":"address","internalType":"address"}],"outputs":[{"name":"","type":"uint256","internalType":"uint256"}],"stateMutability":"view"},{"type":"function","name":"owner","inputs":[],"outputs":[{"name":"","type":"address","internalType":"address"}],"stateMutability":"view"},{"type":"function","name":"pause","inputs":[],"outputs":[],"stateMutability":"nonpayable"},{"type":"function","name":"paused","inputs":[],"outputs":[{"name":"","type":"bool","internalType":"bool"}],"stateMutability":"view"},{"type":"function","name":"pauser","inputs":[],"outputs":[{"name":"","type":"address","internalType":"address"}],"stateMutability":"view"},{"type":"function","name":"permit","inputs":[{"name":"owner","type":"address","internalType":"address"},{"name":"spender","type":"address","internalType":"address"},{"name":"value","type":"uint256","internalType":"uint256"},{"name":"deadline","type":"uint256","internalType":"uint256"},{"name":"v","type":"uint8","internalType":"uint8"},{"name":"r","type":"bytes32","internalType":"bytes32"},{"name":"s","type":"bytes32","internalType":"bytes32"}],"outputs":[],"stateMutability":"nonpayable"},{"type":"function","name":"receiveWithAuthorization","inputs":[{"name":"from","type":"address","internalType":"address"},{"name":"to","type":"address","internalType":"address"},{"name":"value","type":"uint256","internalType":"uint256"},{"name":"validAfter","type":"uint256","internalType":"uint256"},{"name":"validBefore","type":"uint256","internalType":"uint256"},{"name":"nonce","type":"bytes32","internalType":"bytes32"},{"name":"v","type":"uint8","internalType":"uint8"},{"name":"r","type":"bytes32","internalType":"bytes32"},{"name":"s","type":"bytes32","internalType":"bytes32"}],"outputs":[],"stateMutability":"nonpayable"},{"type":"function","name":"removeMinter","inputs":[{"name":"minter","type":"address","internalType":"address"}],"outputs":[{"name":"","type":"bool","internalType":"bool"}],"stateMutability":"nonpayable"},{"type":"function","name":"rescueERC20","inputs":[{"name":"tokenContract","type":"address","internalType":"contract IERC20"},{"name":"to","type":"address","internalType":"address"},{"name":"amount","type":"uint256","internalType":"uint256"}],"outputs":[],"stateMutability":"nonpayable"},{"type":"function","name":"rescuer","inputs":[],"outputs":[{"name":"","type":"address","internalType":"address"}],"stateMutability":"view"},{"type":"function","name":"symbol","inputs":[],"outputs":[{"name":"","type":"string","internalType":"string"}],"stateMutability":"view"},{"type":"function","name":"totalSupply","inputs":[],"outputs":[{"name":"","type":"uint256","internalType":"uint256"}],"stateMutability":"view"},{"type":"function","name":"transfer","inputs":[{"name":"to","type":"address","internalType":"address"},{"name":"value","type":"uint256","internalType":"uint256"}],"outputs":[{"name":"","type":"bool","internalType":"bool"}],"stateMutability":"nonpayable"},{"type":"function","name":"transferFrom","inputs":[{"name":"from","type":"address","internalType":"address"},{"name":"to","type":"address","internalType":"address"},{"name":"value","type":"uint256","internalType":"uint256"}],"outputs":[{"name":"","type":"bool","internalType":"bool"}],"stateMutability":"nonpayable"},{"type":"function","name":"transferOwnership","inputs":[{"name":"newOwner","type":"address","internalType":"address"}],"outputs":[],"stateMutability":"nonpayable"},{"type":"function","name":"transferWithAuthorization","inputs":[{"name":"from","type":"address","internalType":"address"},{"name":"to","type":"address","internalType":"address"},{"name":"value","type":"uint256","internalType":"uint256"},{"name":"validAfter","type":"uint256","internalType":"uint256"},{"name":"validBefore","type":"uint256","internalType":"uint256"},{"name":"nonce","type":"bytes32","internalType":"bytes32"},{"name":"v","type":"uint8","internalType":"uint8"},{"name":"r","type":"bytes32","internalType":"bytes32"},{"name":"s","type":"bytes32","internalType":"bytes32"}],"outputs":[],"stateMutability":"nonpayable"},{"type":"function","name":"unBlacklist","inputs":[{"name":"_account","type":"address","internalType":"address"}],"outputs":[],"stateMutability":"nonpayable"},{"type":"function","name":"unpause","inputs":[],"outputs":[],"stateMutability":"nonpayable"},{"type":"function","name":"updateBlacklister","inputs":[{"name":"_newBlacklister","type":"address","internalType":"address"}],"outputs":[],"stateMutability":"nonpayable"},{"type":"function","name":"updateMasterMinter","inputs":[{"name":"_newMasterMinter","type":"address","internalType":"address"}],"outputs":[],"stateMutability":"nonpayable"},{"type":"function","name":"updatePauser","inputs":[{"name":"_newPauser","type":"address","internalType":"address"}],"outputs":[],"stateMutability":"nonpayable"},{"type":"function","name":"updateRescuer","inputs":[{"name":"newRescuer","type":"address","internalType":"address"}],"outputs":[],"stateMutability":"nonpayable"},{"type":"function","name":"version","inputs":[],"outputs":[{"name":"","type":"string","internalType":"string"}],"stateMutability":"view"},{"type":"event","name":"Approval","inputs":[{"name":"owner","type":"address","indexed":true,"internalType":"address"},{"name":"spender","type":"address","indexed":true,"internalType":"address"},{"name":"value","type":"uint256","indexed":false,"internalType":"uint256"}],"anonymous":false},{"type":"event","name":"AuthorizationCanceled","inputs":[{"name":"authorizer","type":"address","indexed":true,"internalType":"address"},{"name":"nonce","type":"bytes32","indexed":true,"internalType":"bytes32"}],"anonymous":false},{"type":"event","name":"AuthorizationUsed","inputs":[{"name":"authorizer","type":"address","indexed":true,"internalType":"address"},{"name":"nonce","type":"bytes32","indexed":true,"internalType":"bytes32"}],"anonymous":false},{"type":"event","name":"Blacklisted","inputs":[{"name":"_account","type":"address","indexed":true,"internalType":"address"}],"anonymous":false},{"type":"event","name":"BlacklisterChanged","inputs":[{"name":"newBlacklister","type":"address","indexed":true,"internalType":"address"}],"anonymous":false},{"type":"event","name":"Burn","inputs":[{"name":"burner","type":"address","indexed":true,"internalType":"address"},{"name":"amount","type":"uint256","indexed":false,"internalType":"uint256"}],"anonymous":false},{"type":"event","name":"MasterMinterChanged","inputs":[{"name":"newMasterMinter","type":"address","indexed":true,"internalType":"address"}],"anonymous":false},{"type":"event","name":"Mint","inputs":[{"name":"minter","type":"address","indexed":true,"internalType":"address"},{"name":"to","type":"address","indexed":true,"internalType":"address"},{"name":"amount","type":"uint256","indexed":false,"internalType":"uint256"}],"anonymous":false},{"type":"event","name":"MinterConfigured","inputs":[{"name":"minter","type":"address","indexed":true,"internalType":"address"},{"name":"minterAllowedAmount","type":"uint256","indexed":false,"internalType":"uint256"}],"anonymous":false},{"type":"event","name":"MinterRemoved","inputs":[{"name":"oldMinter","type":"address","indexed":true,"internalType":"address"}],"anonymous":false},{"type":"event","name":"OwnershipTransferred","inputs":[{"name":"previousOwner","type":"address","indexed":false,"internalType":"address"},{"name":"newOwner","type":"address","indexed":false,"internalType":"address"}],"anonymous":false},{"type":"event","name":"Pause","inputs":[],"anonymous":false},{"type":"event","name":"PauserChanged","inputs":[{"name":"newAddress","type":"address","indexed":true,"internalType":"address"}],"anonymous":false},{"type":"event","name":"RescuerChanged","inputs":[{"name":"newRescuer","type":"address","indexed":true,"internalType":"address"}],"anonymous":false},{"type":"event","name":"Transfer","inputs":[{"name":"from","type":"address","indexed":true,"internalType":"address"},{"name":"to","type":"address","indexed":true,"internalType":"address"},{"name":"value","type":"uint256","indexed":false,"internalType":"uint256"}],"anonymous":false},{"type":"event","name":"UnBlacklisted","inputs":[{"name":"_account","type":"address","indexed":true,"internalType":"address"}],"anonymous":false},{"type":"event","name":"Unpause","inputs":[],"anonymous":false}],"bytecode":{"object":"0x60806040526001805460ff60a01b191690556000600b553480156200002357600080fd5b506200002f3362000035565b62000057565b600080546001600160a01b0319166001600160a01b0392909216919091179055565b613edd80620000676000396000f3fe608060405234801561001057600080fd5b50600436106102d65760003560e01c80637f2eecc311610182578063b2118a8d116100e9578063e3ee160e116100a2578063ef55bec61161007c578063ef55bec614610b07578063f2fde38b14610b66578063f9f92be414610b8c578063fe575a8714610bb2576102d6565b8063e3ee160e14610a74578063e5a6b10f14610ad3578063e94a010214610adb576102d6565b8063b2118a8d14610941578063bd10243014610977578063d505accf1461097f578063d608ea64146109d0578063d916948714610a3e578063dd62ed3e14610a46576102d6565b8063a0cc6a681161013b578063a0cc6a681461086f578063a457c2d714610877578063a9059cbb146108a3578063aa20e1e4146108cf578063aa271e1a146108f5578063ad38bf221461091b576102d6565b80637f2eecc3146108215780638456cb59146108295780638a6db9c3146108315780638da5cb5b1461085757806395d89b411461085f5780639fd0506d14610867576102d6565b80633644e515116102415780634e44d956116101fa5780635a049a70116101d45780635a049a701461078c5780635c975abb146107cd57806370a08231146107d55780637ecebe00146107fb576102d6565b80634e44d9561461073257806354fd4d501461075e578063554bab3c14610766576102d6565b80633644e515146106a557806338a63183146106ad57806339509351146106b55780633f4ba83a146106e157806340c10f19146106e957806342966c6814610715576102d6565b80632fc81e09116102935780632fc81e09146104365780633092afd51461045c57806330adf81f14610482578063313ce5671461048a5780633357162b146104a857806335d99f3514610681576102d6565b806306fdde03146102db578063095ea7b31461035857806318160ddd146103985780631a895266146103b257806323b872dd146103da5780632ab6004514610410575b600080fd5b6102e3610bd8565b6040805160208082528351818301528351919283929083019185019080838360005b8381101561031d578181015183820152602001610305565b50505050905090810190601f16801561034a5780820380516001836020036101000a031916815260200191505b509250505060405180910390f35b6103846004803603604081101561036e57600080fd5b506001600160a01b038135169060200135610c66565b604080519115158252519081900360200190f35b6103a0610d7a565b60408051918252519081900360200190f35b6103d8600480360360208110156103c857600080fd5b50356001600160a01b0316610d80565b005b610384600480360360608110156103f057600080fd5b506001600160a01b03813581169160208101359091169060400135610e12565b6103d86004803603602081101561042657600080fd5b50356001600160a01b0316611037565b6103d86004803603602081101561044c57600080fd5b50356001600160a01b0316611113565b6103846004803603602081101561047257600080fd5b50356001600160a01b0316611173565b6103a061121a565b61049261123e565b6040805160ff9092168252519081900360200190f35b6103d860048036036101008110156104bf57600080fd5b810190602081018135600160201b8111156104d957600080fd5b8201836020820111156104eb57600080fd5b803590602001918460018302840111600160201b8311171561050c57600080fd5b91908080601f0160208091040260200160405190810160405280939291908181526020018383808284376000920191909152509295949360208101935035915050600160201b81111561055e57600080fd5b82018360208201111561057057600080fd5b803590602001918460018302840111600160201b8311171561059157600080fd5b91908080601f0160208091040260200160405190810160405280939291908181526020018383808284376000920191909152509295949360208101935035915050600160201b8111156105e357600080fd5b8201836020820111156105f557600080fd5b803590602001918460018302840111600160201b8311171561061657600080fd5b91908080601f0160208091040260200160405190810160405280939291908181526020018383808284376000920191909152509295505050813560ff1692505060208101356001600160a01b0390811691604081013582169160608201358116916080013516611247565b610689611453565b604080516001600160a01b039092168252519081900360200190f35b6103a0611462565b610689611468565b610384600480360360408110156106cb57600080fd5b506001600160a01b038135169060200135611477565b6103d8611580565b610384600480360360408110156106ff57600080fd5b506001600160a01b038135169060200135611601565b6103d86004803603602081101561072b57600080fd5b5035611857565b6103846004803603604081101561074857600080fd5b506001600160a01b038135169060200135611a71565b6102e3611b7a565b6103d86004803603602081101561077c57600080fd5b50356001600160a01b0316611b95565b6103d8600480360360a08110156107a257600080fd5b506001600160a01b038135169060208101359060ff6040820135169060608101359060800135611c77565b610384611cdd565b6103a0600480360360208110156107eb57600080fd5b50356001600160a01b0316611ced565b6103a06004803603602081101561081157600080fd5b50356001600160a01b0316611d08565b6103a0611d23565b6103d8611d47565b6103a06004803603602081101561084757600080fd5b50356001600160a01b0316611dce565b610689611de9565b6102e3611df8565b610689611e53565b6103a0611e62565b6103846004803603604081101561088d57600080fd5b506001600160a01b038135169060200135611e86565b610384600480360360408110156108b957600080fd5b506001600160a01b038135169060200135611f8f565b6103d8600480360360208110156108e557600080fd5b50356001600160a01b0316612098565b6103846004803603602081101561090b57600080fd5b50356001600160a01b031661217a565b6103d86004803603602081101561093157600080fd5b50356001600160a01b0316612198565b6103d86004803603606081101561095757600080fd5b506001600160a01b0381358116916020810135909116906040013561227a565b6106896122dc565b6103d8600480360360e081101561099557600080fd5b506001600160a01b03813581169160208101359091169060408101359060608101359060ff6080820135169060a08101359060c001356122eb565b6103d8600480360360208110156109e657600080fd5b810190602081018135600160201b811115610a0057600080fd5b820183602082011115610a1257600080fd5b803590602001918460018302840111600160201b83111715610a3357600080fd5b50909250905061240b565b6103a06124a9565b6103a060048036036040811015610a5c57600080fd5b506001600160a01b03813581169160200135166124cd565b6103d86004803603610120811015610a8b57600080fd5b506001600160a01b03813581169160208101359091169060408101359060608101359060808101359060a08101359060ff60c0820135169060e08101359061010001356124f8565b6102e361261c565b61038460048036036040811015610af157600080fd5b506001600160a01b038135169060200135612677565b6103d86004803603610120811015610b1e57600080fd5b506001600160a01b03813581169160208101359091169060408101359060608101359060808101359060a08101359060ff60c0820135169060e08101359061010001356126a2565b6103d860048036036020811015610b7c57600080fd5b50356001600160a01b03166127b9565b6103d860048036036020811015610ba257600080fd5b50356001600160a01b031661289f565b61038460048036036020811015610bc857600080fd5b50356001600160a01b0316612934565b6004805460408051602060026001851615610100026000190190941693909304601f81018490048402820184019092528181529291830182828015610c5e5780601f10610c3357610100808354040283529160200191610c5e565b820191906000526020600020905b815481529060010190602001808311610c4157829003601f168201915b505050505081565b600154600090600160a01b900460ff1615610cbb576040805162461bcd60e51b815260206004820152601060248201526f14185d5cd8589b194e881c185d5cd95960821b604482015290519081900360640190fd5b3360008181526003602052604090205460ff1615610d0a5760405162461bcd60e51b8152600401808060200182810382526025815260200180613e396025913960400191505060405180910390fd5b6001600160a01b038416600090815260036020526040902054849060ff1615610d645760405162461bcd60e51b8152600401808060200182810382526025815260200180613e396025913960400191505060405180910390fd5b610d6f338686612952565b506001949350505050565b600b5490565b6002546001600160a01b03163314610dc95760405162461bcd60e51b815260040180806020018281038252602c815260200180613b6b602c913960400191505060405180910390fd5b6001600160a01b038116600081815260036020526040808220805460ff19169055517f117e3210bb9aa7d9baff172026820255c6f6c30ba8999d1c2fd88e2848137c4e9190a250565b600154600090600160a01b900460ff1615610e67576040805162461bcd60e51b815260206004820152601060248201526f14185d5cd8589b194e881c185d5cd95960821b604482015290519081900360640190fd5b3360008181526003602052604090205460ff1615610eb65760405162461bcd60e51b8152600401808060200182810382526025815260200180613e396025913960400191505060405180910390fd5b6001600160a01b038516600090815260036020526040902054859060ff1615610f105760405162461bcd60e51b8152600401808060200182810382526025815260200180613e396025913960400191505060405180910390fd5b6001600160a01b038516600090815260036020526040902054859060ff1615610f6a5760405162461bcd60e51b8152600401808060200182810382526025815260200180613e396025913960400191505060405180910390fd5b6001600160a01b0387166000908152600a60209081526040808320338452909152902054851115610fcc5760405162461bcd60e51b8152600401808060200182810382526028815260200180613c316028913960400191505060405180910390fd5b610fd7878787612a3e565b6001600160a01b0387166000908152600a602090815260408083203384529091529020546110059086612bcd565b6001600160a01b0388166000908152600a60209081526040808320338452909152902055600193505050509392505050565b6000546001600160a01b03163314611084576040805162461bcd60e51b81526020600482018190526024820152600080516020613c59833981519152604482015290519081900360640190fd5b6001600160a01b0381166110c95760405162461bcd60e51b815260040180806020018281038252602a815260200180613ac9602a913960400191505060405180910390fd5b600e80546001600160a01b0319166001600160a01b0383169081179091556040517fe475e580d85111348e40d8ca33cfdd74c30fe1655c2d8537a13abc10065ffa5a90600090a250565b60125460ff1660011461112557600080fd5b30600090815260096020526040902054801561114657611146308383612a3e565b5050306000908152600360205260409020805460ff19908116600117909155601280549091166002179055565b6008546000906001600160a01b031633146111bf5760405162461bcd60e51b8152600401808060200182810382526029815260200180613b426029913960400191505060405180910390fd5b6001600160a01b0382166000818152600c60209081526040808320805460ff19169055600d909152808220829055517fe94479a9f7e1952cc78f2d6baab678adc1b772d936c6583def489e524cb666929190a2506001919050565b7f6e71edae12b1b97f4d1f60370fef10105fa2faae0126114a169c64845d6126c981565b60065460ff1681565b600854600160a01b900460ff16156112905760405162461bcd60e51b815260040180806020018281038252602a815260200180613ccc602a913960400191505060405180910390fd5b6001600160a01b0384166112d55760405162461bcd60e51b815260040180806020018281038252602f815260200180613bde602f913960400191505060405180910390fd5b6001600160a01b03831661131a5760405162461bcd60e51b8152600401808060200182810382526029815260200180613aa06029913960400191505060405180910390fd5b6001600160a01b03821661135f5760405162461bcd60e51b815260040180806020018281038252602e815260200180613c79602e913960400191505060405180910390fd5b6001600160a01b0381166113a45760405162461bcd60e51b8152600401808060200182810382526028815260200180613db16028913960400191505060405180910390fd5b87516113b79060049060208b019061386e565b5086516113cb9060059060208a019061386e565b5085516113df90600790602089019061386e565b506006805460ff191660ff8716179055600880546001600160a01b03199081166001600160a01b03878116919091179092556001805482168684161790556002805490911691841691909117905561143681612c16565b50506008805460ff60a01b1916600160a01b179055505050505050565b6008546001600160a01b031681565b600f5481565b600e546001600160a01b031690565b600154600090600160a01b900460ff16156114cc576040805162461bcd60e51b815260206004820152601060248201526f14185d5cd8589b194e881c185d5cd95960821b604482015290519081900360640190fd5b3360008181526003602052604090205460ff161561151b5760405162461bcd60e51b8152600401808060200182810382526025815260200180613e396025913960400191505060405180910390fd5b6001600160a01b038416600090815260036020526040902054849060ff16156115755760405162461bcd60e51b8152600401808060200182810382526025815260200180613e396025913960400191505060405180910390fd5b610d6f338686612c38565b6001546001600160a01b031633146115c95760405162461bcd60e51b8152600401808060200182810382526022815260200180613d3f6022913960400191505060405180910390fd5b6001805460ff60a01b191690556040517f7805862f689e2f13df9f062ff482ad3ad112aca9e0847911ed832e158c525b3390600090a1565b600154600090600160a01b900460ff1615611656576040805162461bcd60e51b815260206004820152601060248201526f14185d5cd8589b194e881c185d5cd95960821b604482015290519081900360640190fd5b3360008181526003602052604090205460ff16156116a55760405162461bcd60e51b8152600401808060200182810382526025815260200180613e396025913960400191505060405180910390fd5b6001600160a01b038416600090815260036020526040902054849060ff16156116ff5760405162461bcd60e51b8152600401808060200182810382526025815260200180613e396025913960400191505060405180910390fd5b6001600160a01b0385166117445760405162461bcd60e51b8152600401808060200182810382526023815260200180613a0f6023913960400191505060405180910390fd5b600084116117835760405162461bcd60e51b8152600401808060200182810382526029815260200180613af36029913960400191505060405180910390fd5b600b546117909085612c75565b600b556001600160a01b0385166000908152600960205260409020546117b69085612c75565b6001600160a01b0386166000818152600960209081526040918290209390935580518781529051919233927fab8530f87dc9b59234c4623bf917212bb2536d647574c8e7e5da92c2ede0c9f89281900390910190a36040805185815290516001600160a01b038716916000917fddf252ad1be2c89b69c2b068fc378daa952ba7f163c4a11628f55a4df523b3ef9181900360200190a3506001949350505050565b600154600160a01b900460ff16156118a9576040805162461bcd60e51b815260206004820152601060248201526f14185d5cd8589b194e881c185d5cd95960821b604482015290519081900360640190fd5b336000908152600c602052604090205460ff166118f75760405162461bcd60e51b8152600401808060200182810382526021815260200180613bbd6021913960400191505060405180910390fd5b3360008181526003602052604090205460ff16156119465760405162461bcd60e51b8152600401808060200182810382526025815260200180613e396025913960400191505060405180910390fd5b33600090815260096020526040902054826119925760405162461bcd60e51b81526004018080602001828103825260298152602001806139e66029913960400191505060405180910390fd5b828110156119d15760405162461bcd60e51b8152600401808060200182810382526026815260200180613b976026913960400191505060405180910390fd5b600b546119de9084612bcd565b600b556119eb8184612bcd565b33600081815260096020908152604091829020939093558051868152905191927fcc16f5dbb4873280815c1ee09dbd06736cffcc184412cf7a71a0fdb75d397ca592918290030190a260408051848152905160009133917fddf252ad1be2c89b69c2b068fc378daa952ba7f163c4a11628f55a4df523b3ef9181900360200190a3505050565b600154600090600160a01b900460ff1615611ac6576040805162461bcd60e51b815260206004820152601060248201526f14185d5cd8589b194e881c185d5cd95960821b604482015290519081900360640190fd5b6008546001600160a01b03163314611b0f5760405162461bcd60e51b8152600401808060200182810382526029815260200180613b426029913960400191505060405180910390fd5b6001600160a01b0383166000818152600c60209081526040808320805460ff19166001179055600d825291829020859055815185815291517f46980fca912ef9bcdbd36877427b6b90e860769f604e89c0e67720cece530d209281900390910190a250600192915050565b6040805180820190915260018152601960f91b602082015290565b6000546001600160a01b03163314611be2576040805162461bcd60e51b81526020600482018190526024820152600080516020613c59833981519152604482015290519081900360640190fd5b6001600160a01b038116611c275760405162461bcd60e51b81526004018080602001828103825260288152602001806139936028913960400191505060405180910390fd5b600180546001600160a01b0319166001600160a01b0383811691909117918290556040519116907fb80482a293ca2e013eda8683c9bd7fc8347cfdaeea5ede58cba46df502c2a60490600090a250565b600154600160a01b900460ff1615611cc9576040805162461bcd60e51b815260206004820152601060248201526f14185d5cd8589b194e881c185d5cd95960821b604482015290519081900360640190fd5b611cd68585858585612ccf565b5050505050565b600154600160a01b900460ff1681565b6001600160a01b031660009081526009602052604090205490565b6001600160a01b031660009081526011602052604090205490565b7fd099cc98ef71107a616c4f0f941f04c322d8e254fe26b3c6668db87aae413de881565b6001546001600160a01b03163314611d905760405162461bcd60e51b8152600401808060200182810382526022815260200180613d3f6022913960400191505060405180910390fd5b6001805460ff60a01b1916600160a01b1790556040517f6985a02210a168e66602d3235cb6db0e70f92b3ba4d376a33c0f3d9434bff62590600090a1565b6001600160a01b03166000908152600d602052604090205490565b6000546001600160a01b031690565b6005805460408051602060026001851615610100026000190190941693909304601f81018490048402820184019092528181529291830182828015610c5e5780601f10610c3357610100808354040283529160200191610c5e565b6001546001600160a01b031681565b7f7c7c6cdb67a18743f49ec6fa9b35f50d52ed05cbed4cc592e13b44501c1a226781565b600154600090600160a01b900460ff1615611edb576040805162461bcd60e51b815260206004820152601060248201526f14185d5cd8589b194e881c185d5cd95960821b604482015290519081900360640190fd5b3360008181526003602052604090205460ff1615611f2a5760405162461bcd60e51b8152600401808060200182810382526025815260200180613e396025913960400191505060405180910390fd5b6001600160a01b038416600090815260036020526040902054849060ff1615611f845760405162461bcd60e51b8152600401808060200182810382526025815260200180613e396025913960400191505060405180910390fd5b610d6f338686612df9565b600154600090600160a01b900460ff1615611fe4576040805162461bcd60e51b815260206004820152601060248201526f14185d5cd8589b194e881c185d5cd95960821b604482015290519081900360640190fd5b3360008181526003602052604090205460ff16156120335760405162461bcd60e51b8152600401808060200182810382526025815260200180613e396025913960400191505060405180910390fd5b6001600160a01b038416600090815260036020526040902054849060ff161561208d5760405162461bcd60e51b8152600401808060200182810382526025815260200180613e396025913960400191505060405180910390fd5b610d6f338686612a3e565b6000546001600160a01b031633146120e5576040805162461bcd60e51b81526020600482018190526024820152600080516020613c59833981519152604482015290519081900360640190fd5b6001600160a01b03811661212a5760405162461bcd60e51b815260040180806020018281038252602f815260200180613bde602f913960400191505060405180910390fd5b600880546001600160a01b0319166001600160a01b0383811691909117918290556040519116907fdb66dfa9c6b8f5226fe9aac7e51897ae8ee94ac31dc70bb6c9900b2574b707e690600090a250565b6001600160a01b03166000908152600c602052604090205460ff1690565b6000546001600160a01b031633146121e5576040805162461bcd60e51b81526020600482018190526024820152600080516020613c59833981519152604482015290519081900360640190fd5b6001600160a01b03811661222a5760405162461bcd60e51b8152600401808060200182810382526032815260200180613e076032913960400191505060405180910390fd5b600280546001600160a01b0319166001600160a01b0383811691909117918290556040519116907fc67398012c111ce95ecb7429b933096c977380ee6c421175a71a4a4c6c88c06e90600090a250565b600e546001600160a01b031633146122c35760405162461bcd60e51b8152600401808060200182810382526024815260200180613c0d6024913960400191505060405180910390fd5b6122d76001600160a01b0384168383612e48565b505050565b6002546001600160a01b031681565b600154600160a01b900460ff161561233d576040805162461bcd60e51b815260206004820152601060248201526f14185d5cd8589b194e881c185d5cd95960821b604482015290519081900360640190fd5b6001600160a01b038716600090815260036020526040902054879060ff16156123975760405162461bcd60e51b8152600401808060200182810382526025815260200180613e396025913960400191505060405180910390fd5b6001600160a01b038716600090815260036020526040902054879060ff16156123f15760405162461bcd60e51b8152600401808060200182810382526025815260200180613e396025913960400191505060405180910390fd5b61240089898989898989612e9a565b505050505050505050565b600854600160a01b900460ff168015612427575060125460ff16155b61243057600080fd5b61243c600483836138ec565b5061249582828080601f016020809104026020016040519081016040528093929190818152602001838380828437600092019190915250506040805180820190915260018152601960f91b60208201529150612ff59050565b600f5550506012805460ff19166001179055565b7f158b0a9edf7a828aad02f63cd515c68ef2f50ba807396f6d12842833a159742981565b6001600160a01b039182166000908152600a6020908152604080832093909416825291909152205490565b600154600160a01b900460ff161561254a576040805162461bcd60e51b815260206004820152601060248201526f14185d5cd8589b194e881c185d5cd95960821b604482015290519081900360640190fd5b6001600160a01b038916600090815260036020526040902054899060ff16156125a45760405162461bcd60e51b8152600401808060200182810382526025815260200180613e396025913960400191505060405180910390fd5b6001600160a01b038916600090815260036020526040902054899060ff16156125fe5760405162461bcd60e51b8152600401808060200182810382526025815260200180613e396025913960400191505060405180910390fd5b61260f8b8b8b8b8b8b8b8b8b613067565b5050505050505050505050565b6007805460408051602060026001851615610100026000190190941693909304601f81018490048402820184019092528181529291830182828015610c5e5780601f10610c3357610100808354040283529160200191610c5e565b6001600160a01b03919091166000908152601060209081526040808320938352929052205460ff1690565b600154600160a01b900460ff16156126f4576040805162461bcd60e51b815260206004820152601060248201526f14185d5cd8589b194e881c185d5cd95960821b604482015290519081900360640190fd5b6001600160a01b038916600090815260036020526040902054899060ff161561274e5760405162461bcd60e51b8152600401808060200182810382526025815260200180613e396025913960400191505060405180910390fd5b6001600160a01b038916600090815260036020526040902054899060ff16156127a85760405162461bcd60e51b8152600401808060200182810382526025815260200180613e396025913960400191505060405180910390fd5b61260f8b8b8b8b8b8b8b8b8b613175565b6000546001600160a01b03163314612806576040805162461bcd60e51b81526020600482018190526024820152600080516020613c59833981519152604482015290519081900360640190fd5b6001600160a01b03811661284b5760405162461bcd60e51b8152600401808060200182810382526026815260200180613a586026913960400191505060405180910390fd5b600054604080516001600160a01b039283168152918316602083015280517f8be0079c531659141344cd1fd0a4f28419497f9722a3daafe3b4186f6b6457e09281900390910190a161289c81612c16565b50565b6002546001600160a01b031633146128e85760405162461bcd60e51b815260040180806020018281038252602c815260200180613b6b602c913960400191505060405180910390fd5b6001600160a01b038116600081815260036020526040808220805460ff19166001179055517fffa4e6181777692565cf28528fc88fd1516ea86b56da075235fa575af6a4b8559190a250565b6001600160a01b031660009081526003602052604090205460ff1690565b6001600160a01b0383166129975760405162461bcd60e51b8152600401808060200182810382526024815260200180613d1b6024913960400191505060405180910390fd5b6001600160a01b0382166129dc5760405162461bcd60e51b8152600401808060200182810382526022815260200180613a7e6022913960400191505060405180910390fd5b6001600160a01b038084166000818152600a6020908152604080832094871680845294825291829020859055815185815291517f8c5be1e5ebec7d5bd14f71427d1e84f3dd0314c0f7b2291e5b200ac8c7c3b9259281900390910190a3505050565b6001600160a01b038316612a835760405162461bcd60e51b8152600401808060200182810382526025815260200180613cf66025913960400191505060405180910390fd5b6001600160a01b038216612ac85760405162461bcd60e51b81526004018080602001828103825260238152602001806139706023913960400191505060405180910390fd5b6001600160a01b038316600090815260096020526040902054811115612b1f5760405162461bcd60e51b8152600401808060200182810382526026815260200180613b1c6026913960400191505060405180910390fd5b6001600160a01b038316600090815260096020526040902054612b429082612bcd565b6001600160a01b038085166000908152600960205260408082209390935590841681522054612b719082612c75565b6001600160a01b0380841660008181526009602090815260409182902094909455805185815290519193928716927fddf252ad1be2c89b69c2b068fc378daa952ba7f163c4a11628f55a4df523b3ef92918290030190a3505050565b6000612c0f83836040518060400160405280601e81526020017f536166654d6174683a207375627472616374696f6e206f766572666c6f77000081525061324e565b9392505050565b600080546001600160a01b0319166001600160a01b0392909216919091179055565b6001600160a01b038084166000908152600a60209081526040808320938616835292905220546122d79084908490612c709085612c75565b612952565b600082820183811015612c0f576040805162461bcd60e51b815260206004820152601b60248201527f536166654d6174683a206164646974696f6e206f766572666c6f770000000000604482015290519081900360640190fd5b612cd985856132e5565b604080517f158b0a9edf7a828aad02f63cd515c68ef2f50ba807396f6d12842833a159742960208201526001600160a01b0387168183018190526060828101889052835180840390910181526080909201909252600f54909190612d40908686868661334c565b6001600160a01b031614612d9b576040805162461bcd60e51b815260206004820152601e60248201527f46696174546f6b656e56323a20696e76616c6964207369676e61747572650000604482015290519081900360640190fd5b6001600160a01b0386166000818152601060209081526040808320898452909152808220805460ff19166001179055518792917f1cdd46ff242716cdaa72d159d339a485b3438398348d68f09d7c8c0a59353d8191a3505050505050565b6122d78383612c7084604051806060016040528060258152602001613e83602591396001600160a01b03808a166000908152600a60209081526040808320938c1683529290522054919061324e565b604080516001600160a01b038416602482015260448082018490528251808303909101815260649091019091526020810180516001600160e01b031663a9059cbb60e01b1790526122d79084906133a3565b42841015612eef576040805162461bcd60e51b815260206004820152601e60248201527f46696174546f6b656e56323a207065726d697420697320657870697265640000604482015290519081900360640190fd5b6001600160a01b0380881660008181526011602090815260409182902080546001810190915582517f6e71edae12b1b97f4d1f60370fef10105fa2faae0126114a169c64845d6126c992810192909252818301849052938a1660608201526080810189905260a081019390935260c08084018890528151808503909101815260e09093019052600f54612f85908686868661334c565b6001600160a01b031614612fe0576040805162461bcd60e51b815260206004820152601a60248201527f454950323631323a20696e76616c6964207369676e6174757265000000000000604482015290519081900360640190fd5b612feb888888612952565b5050505050505050565b8151602092830120815191830191909120604080517f8b73c3c69bb8fe3d512ecc4cf759cc79239f7b179b0ffacaa9a75d522b39400f818601528082019390935260608301919091524660808301523060a0808401919091528151808403909101815260c09092019052805191012090565b61307389858888613454565b604080517f7c7c6cdb67a18743f49ec6fa9b35f50d52ed05cbed4cc592e13b44501c1a226760208201526001600160a01b03808c16828401819052908b166060830152608082018a905260a0820189905260c0820188905260e080830188905283518084039091018152610100909201909252600f549091906130f9908686868661334c565b6001600160a01b031614613154576040805162461bcd60e51b815260206004820152601e60248201527f46696174546f6b656e56323a20696e76616c6964207369676e61747572650000604482015290519081900360640190fd5b61315e8a866134e0565b6131698a8a8a612a3e565b50505050505050505050565b6001600160a01b03881633146131bc5760405162461bcd60e51b8152600401808060200182810382526025815260200180613ca76025913960400191505060405180910390fd5b6131c889858888613454565b604080517fd099cc98ef71107a616c4f0f941f04c322d8e254fe26b3c6668db87aae413de860208201526001600160a01b03808c16828401819052908b166060830152608082018a905260a0820189905260c0820188905260e080830188905283518084039091018152610100909201909252600f549091906130f9908686868661334c565b600081848411156132dd5760405162461bcd60e51b81526004018080602001828103825283818151815260200191508051906020019080838360005b838110156132a257818101518382015260200161328a565b50505050905090810190601f1680156132cf5780820380516001836020036101000a031916815260200191505b509250505060405180910390fd5b505050900390565b6001600160a01b038216600090815260106020908152604080832084845290915290205460ff16156133485760405162461bcd60e51b815260040180806020018281038252602e815260200180613dd9602e913960400191505060405180910390fd5b5050565b80516020808301919091206040805161190160f01b818501526022810189905260428082019390935281518082039093018352606201905280519101206000906133988187878761353a565b979650505050505050565b60606133f8826040518060400160405280602081526020017f5361666545524332303a206c6f772d6c6576656c2063616c6c206661696c6564815250856001600160a01b03166136be9092919063ffffffff16565b8051909150156122d75780806020019051602081101561341757600080fd5b50516122d75760405162461bcd60e51b815260040180806020018281038252602a815260200180613d87602a913960400191505060405180910390fd5b8142116134925760405162461bcd60e51b815260040180806020018281038252602b8152602001806139bb602b913960400191505060405180910390fd5b8042106134d05760405162461bcd60e51b8152600401808060200182810382526025815260200180613e5e6025913960400191505060405180910390fd5b6134da84846132e5565b50505050565b6001600160a01b0382166000818152601060209081526040808320858452909152808220805460ff19166001179055518392917f98de503528ee59b575ef0c0a2576a82497bfc029a5685b209e9ec333479b10a591a35050565b60007f7fffffffffffffffffffffffffffffff5d576e7357a4501ddfe92f46681b20a082111561359b5760405162461bcd60e51b8152600401808060200182810382526026815260200180613d616026913960400191505060405180910390fd5b8360ff16601b141580156135b357508360ff16601c14155b156135ef5760405162461bcd60e51b8152600401808060200182810382526026815260200180613a326026913960400191505060405180910390fd5b600060018686868660405160008152602001604052604051808581526020018460ff1681526020018381526020018281526020019450505050506020604051602081039080840390855afa15801561364b573d6000803e3d6000fd5b5050604051601f1901519150506001600160a01b0381166136b3576040805162461bcd60e51b815260206004820152601c60248201527f45435265636f7665723a20696e76616c6964207369676e617475726500000000604482015290519081900360640190fd5b90505b949350505050565b60606136b6848460008560606136d385613835565b613724576040805162461bcd60e51b815260206004820152601d60248201527f416464726573733a2063616c6c20746f206e6f6e2d636f6e7472616374000000604482015290519081900360640190fd5b60006060866001600160a01b031685876040518082805190602001908083835b602083106137635780518252601f199092019160209182019101613744565b6001836020036101000a03801982511681845116808217855250505050505090500191505060006040518083038185875af1925050503d80600081146137c5576040519150601f19603f3d011682016040523d82523d6000602084013e6137ca565b606091505b509150915081156137de5791506136b69050565b8051156137ee5780518082602001fd5b60405162461bcd60e51b81526020600482018181528651602484015286518793919283926044019190850190808383600083156132a257818101518382015260200161328a565b6000813f7fc5d2460186f7233c927e7db2dcc703c0e500b653ca82273b7bfad8045d85a4708181148015906136b6575050151592915050565b828054600181600116156101000203166002900490600052602060002090601f016020900481019282601f106138af57805160ff19168380011785556138dc565b828001600101855582156138dc579182015b828111156138dc5782518255916020019190600101906138c1565b506138e892915061395a565b5090565b828054600181600116156101000203166002900490600052602060002090601f016020900481019282601f1061392d5782800160ff198235161785556138dc565b828001600101855582156138dc579182015b828111156138dc57823582559160200191906001019061393f565b5b808211156138e8576000815560010161395b56fe45524332303a207472616e7366657220746f20746865207a65726f20616464726573735061757361626c653a206e65772070617573657220697320746865207a65726f206164647265737346696174546f6b656e56323a20617574686f72697a6174696f6e206973206e6f74207965742076616c696446696174546f6b656e3a206275726e20616d6f756e74206e6f742067726561746572207468616e203046696174546f6b656e3a206d696e7420746f20746865207a65726f206164647265737345435265636f7665723a20696e76616c6964207369676e6174757265202776272076616c75654f776e61626c653a206e6577206f776e657220697320746865207a65726f206164647265737345524332303a20617070726f766520746f20746865207a65726f206164647265737346696174546f6b656e3a206e65772070617573657220697320746865207a65726f2061646472657373526573637561626c653a206e6577207265736375657220697320746865207a65726f206164647265737346696174546f6b656e3a206d696e7420616d6f756e74206e6f742067726561746572207468616e203045524332303a207472616e7366657220616d6f756e7420657863656564732062616c616e636546696174546f6b656e3a2063616c6c6572206973206e6f7420746865206d61737465724d696e746572426c61636b6c69737461626c653a2063616c6c6572206973206e6f742074686520626c61636b6c697374657246696174546f6b656e3a206275726e20616d6f756e7420657863656564732062616c616e636546696174546f6b656e3a2063616c6c6572206973206e6f742061206d696e74657246696174546f6b656e3a206e6577206d61737465724d696e74657220697320746865207a65726f2061646472657373526573637561626c653a2063616c6c6572206973206e6f7420746865207265736375657245524332303a207472616e7366657220616d6f756e74206578636565647320616c6c6f77616e63654f776e61626c653a2063616c6c6572206973206e6f7420746865206f776e657246696174546f6b656e3a206e657720626c61636b6c697374657220697320746865207a65726f206164647265737346696174546f6b656e56323a2063616c6c6572206d7573742062652074686520706179656546696174546f6b656e3a20636f6e747261637420697320616c726561647920696e697469616c697a656445524332303a207472616e736665722066726f6d20746865207a65726f206164647265737345524332303a20617070726f76652066726f6d20746865207a65726f20616464726573735061757361626c653a2063616c6c6572206973206e6f74207468652070617573657245435265636f7665723a20696e76616c6964207369676e6174757265202773272076616c75655361666545524332303a204552433230206f7065726174696f6e20646964206e6f74207375636365656446696174546f6b656e3a206e6577206f776e657220697320746865207a65726f206164647265737346696174546f6b656e56323a20617574686f72697a6174696f6e2069732075736564206f722063616e63656c6564426c61636b6c69737461626c653a206e657720626c61636b6c697374657220697320746865207a65726f2061646472657373426c61636b6c69737461626c653a206163636f756e7420697320626c61636b6c697374656446696174546f6b656e56323a20617574686f72697a6174696f6e206973206578706972656445524332303a2064656372656173656420616c6c6f77616e63652062656c6f77207a65726fa2646970667358221220fc29b5c31b6eb154def47d8223216e0c961cc919774b20d354bf5d7e9fc4ee8a64736f6c634300060c0033","linkReferences":{}},"methodIdentifiers":{"CANCEL_AUTHORIZATION_TYPEHASH()":"d9169487","DOMAIN_SEPARATOR()":"3644e515","PERMIT_TYPEHASH()":"30adf81f","RECEIVE_WITH_AUTHORIZATION_TYPEHASH()":"7f2eecc3","TRANSFER_WITH_AUTHORIZATION_TYPEHASH()":"a0cc6a68","allowance(address,address)":"dd62ed3e","approve(address,uint256)":"095ea7b3","authorizationState(address,bytes32)":"e94a0102","balanceOf(address)":"70a08231","blacklist(address)":"f9f92be4","blacklister()":"bd102430","burn(uint256)":"42966c68","cancelAuthorization(address,bytes32,uint8,bytes32,bytes32)":"5a049a70","configureMinter(address,uint256)":"4e44d956","currency()":"e5a6b10f","decimals()":"313ce567","decreaseAllowance(address,uint256)":"a457c2d7","increaseAllowance(address,uint256)":"39509351","initialize(string,string,string,uint8,address,address,address,address)":"3357162b","initializeV2(string)":"d608ea64","initializeV2_1(address)":"2fc81e09","isBlacklisted(address)":"fe575a87","isMinter(address)":"aa271e1a","masterMinter()":"35d99f35","mint(address,uint256)":"40c10f19","minterAllowance(address)":"8a6db9c3","name()":"06fdde03","nonces(address)":"7ecebe00","owner()":"8da5cb5b","pause()":"8456cb59","paused()":"5c975abb","pauser()":"9fd0506d","permit(address,address,uint256,uint256,uint8,bytes32,bytes32)":"d505accf","receiveWithAuthorization(address,address,uint256,uint256,uint256,bytes32,uint8,bytes32,bytes32)":"ef55bec6","removeMinter(address)":"3092afd5","rescueERC20(address,address,uint256)":"b2118a8d","rescuer()":"38a63183","symbol()":"95d89b41","totalSupply()":"18160ddd","transfer(address,uint256)":"a9059cbb","transferFrom(address,address,uint256)":"23b872dd","transferOwnership(address)":"f2fde38b","transferWithAuthorization(address,address,uint256,uint256,uint256,bytes32,uint8,bytes32,bytes32)":"e3ee160e","unBlacklist(address)":"1a895266","unpause()":"3f4ba83a","updateBlacklister(address)":"ad38bf22","updateMasterMinter(address)":"aa20e1e4","updatePauser(address)":"554bab3c","updateRescuer(address)":"2ab60045","version()":"54fd4d50"},"id":0}